:100000000C944E000C946B000C946B000C946B00E1
:100010000C946B000C946B000C946B000C946B00B4
:100020000C946B000C946B000C946B000C946B00A4
:100030000C946B000C946B000C946B000C946B0094
:100040000C946B000C946B000C946B000C946B0084
:100050000C946B000C946B000C946B000C946B0074
:100060000C946B000C946B0020202020202020207A
:100070002020202020202020202020202020202080
:100080002020202020202020202020202020202070
:1000900000610031323300313233000011241FBEC1
:1000A000CFEFD8E0DEBFCDBF11E0A0E0B1E0E4EFDC
:1000B000FBE002C005900D92A838B107D9F711E016
:1000C000A8E8B1E001C01D92A03BB107E1F70E9492
:1000D0009C020C94F8050C940000ACE7B0E08C9105
:1000E00080628C93EAE7F0E0808184608083808185
:1000F000826080838081806880838C9180648C930F
:10010000089580917C008B7F80937C0080917C009F
:10011000836080937C0080917A00806480937A0071
:1001200080917A00806480937A0080917A0086FDC5
:10013000FCCF8091790090E0089580917C008C7FC5
:1001400080937C0080917C00846080937C0080910F
:100150007A00806480937A0080917A0084FFFCCFDB
:100160008091790090E008958FE390E09093C5002E
:100170008093C400E1ECF0E080818860808380811E
:100180008061808386E08093C20008959091C000D2
:1001900095FFFCCF8093C6000895CF93DF93EC01C9
:1001A00002C00E94C60089918823D9F7DF91CF91C0
:1001B00008958091C00087FFFCCF8091C60008950C
:1001C0008BB18F708BB98AB18F708AB985B18B77FB
:1001D00085B9299A2A9A83E08A95F1F7000089B1B6
:1001E0002A982A9A2A9887FDF5CF8AB1806F8AB912
:1001F00008952BB1982F907F922B9BB99BB18F6064
:1002000089238BB92A9A2A98662311F00E94E0006C
:100210000895CF93C82F85B1897F85B92F9A8C2FE8
:1002200060E00E94F9008C2F8295807F61E00E943F
:10023000F900CF910895CF93DF93C82FD62F85B1C2
:10024000897785B98C2F60E00E94F9008C2F829508
:10025000807F6D2F0E94F900DF91CF910895EF927A
:10026000FF921F93CF93DF930F92CDB7DEB7162F78
:10027000806861E079830E941B01E12E7981F72E6D
:1002800002C00E940901F70181917F018823C9F70B
:100290000F90DF91CF911F91FF90EF900895CF9332
:1002A000DF93EB01806861E00E941B0102C00E94A5
:1002B0000901FE01219684918823C9F7DF91CF912E
:1002C00008958AB1806F8AB984B1866884B981E063
:1002D00060E00E941B0108958FEF9FE80197F1F7FE
:1002E00000C0000080E360E00E94F90086E696E22C
:1002F0000197F1F7000080E360E00E94F90086E2D8
:1003000091E00197F1F700C0000080E360E00E94F7
:10031000F90080E261E00E94F90088E261E00E9459
:100320001B018FE061E00E941B01089568E670E008
:100330000E944F01089581E060E00E941B01089532
:10034000EF92FF920F931F93CF93DF93CAE0D0E019
:1003500000E010E0EE24FF2401C07C010E94810037
:10036000803F910534F020EFE216F10414F40F5FA2
:100370001F4F2FEF3FEF42E0215030404040E1F768
:1003800000C000C0219749F781E0101611060CF05B
:1003900080E0DF91CF911F910F91FF90EF90089532
:1003A0008F929F92AF92BF92CF92DF92EF92FF9285
:1003B0000F931F93CF93DF9380E090E00E9496010C
:1003C00088E891E060E071E00E941A0380E090E02C
:1003D00068E871E00E942F0144E6E42EF12C00E071
:1003E00010E0CC24DD2458E8A52E51E0B52EE2E142
:1003F0008E2EE1E09E2E01C06E010E948100EC0174
:1004000000D000D000D0EDB7FEB73196ADB7BEB783
:100410001296BC92AE9211979382828295838483C6
:100420000E9421038DB79EB706960FB6F8949EBF23
:100430000FBE8DBF88E891E00E94CD00C03FD1057E
:1004400034F090EFC916D10414F40F5F1F4F8FEFF3
:100450009FEFA2E081509040A040E1F700C000C0B3
:100460000894E108F108E114F10431F6C801880F9D
:10047000991F800F911F880F991FDF91CF911F91B6
:100480000F91FF90EF90DF90CF90BF90AF909F9033
:100490008F900895EF92FF920F931F93CF93DF9366
:1004A00080E490E00E94960188E891E064E371E0C6
:1004B0000E941A0380E490E068E871E00E942F0136
:1004C000C4E1D0E008E811E0F7E4EF2EF1E0FF2E00
:1004D0000E949D0000D000D000D0EDB7FEB731964D
:1004E000ADB7BEB712961C930E931197F382E282BA
:1004F000958384830E9421038DB79EB706960FB61D
:10050000F8949EBF0FBE8DBF88E891E00E94CD0099
:100510008FEF9FEFA2E081509040A040E1F700C034
:1005200000C02197A9F60E949D00DF91CF911F91F5
:100530000F91FF90EF9008950E9461010E946C015D
:100540000E94B4000E946D00C8E8D1E00FE611E0FF
:10055000ACE7EA2EA1E0FA2E0E94A001882379F1EF
:100560000E94D00100D000D000D0EDB7FEB7319688
:10057000ADB7BEB71296DC93CE9311971383028367
:10058000958384830E9421038DB79EB706960FB68C
:10059000F8949EBF0FBE8DBF80E090E00E94960150
:1005A00080E090E068E871E00E942F018FEF9FEFFC
:1005B000ADE181509040A040E1F700C000000E94F2
:1005C0004A0200D000D000D0EDB7FEB73196ADB7EB
:1005D000BEB71296DC93CE931197F382E282958395
:1005E00084830E9421038DB79EB706960FB6F894B8
:1005F0009EBF0FBE8DBF80E490E00E94960180E414
:1006000090E068E871E00E942F018FEF9FEFA7E76D
:1006100081509040A040E1F700C000000E949B0183
:100620008FEF9FEFADE181509040A040E1F700C017
:10063000000092CFFB01DC0101900D920020E1F758
:100640000895AEE0B0E0E7E2F3E00C94CF050D8949
:100650001E8986E08C831A8309838FEF9FE79E8330
:100660008D83AE01475E5F4FCE0101966F89788D15
:100670000E944303EF81F885E00FF11F10822E9650
:10068000E4E00C94EB05ADE0B0E0E9E4F3E00C94B9
:10069000C1053C017D876C875A01FC0117821682D7
:1006A000838181FFC8C12E010894411C511CF301B4
:1006B0009381EC85FD8593FD859193FF8191FD8765
:1006C000EC87882309F4B3C1853241F493FD859109
:1006D00093FF8191FD87EC87853229F490E0B30187
:1006E0000E943705E4CFFF24EE2410E01032B0F46E
:1006F0008B3269F08C3228F4803251F0833271F4FD
:100700000BC08D3239F0803349F411602CC0126077
:10071000146029C0186027C0106125C017FD2EC0C5
:10072000282F20532A3098F416FF08C08F2D880FE9
:10073000F82EFF0CFF0CF80EF20E15C08E2D880F50
:10074000E82EEE0CEE0CE80EE20E10620CC08E32BB
:1007500021F416FD6CC1106406C08C3611F41068CB
:1007600002C0883659F4EC85FD8593FD859193FF91
:100770008191FD87EC87882309F0B8CF982F955495
:10078000933018F09052933038F424E030E0A20E09
:10079000B31E3FE339830FC0833631F0833781F0D6
:1007A000833509F05AC022C0F5018081898322E097
:1007B00030E0A20EB31E21E0C22ED12C420114C0A3
:1007C00092E0292E312C2A0C3B1CF501808091806F
:1007D00016FF03C06F2D70E002C06FEF7FEFC40102
:1007E0000E942C056C0151011F7715C082E0282E54
:1007F000312C2A0C3B1CF5018080918016FF03C030
:100800006F2D70E002C06FEF7FEFC4010E942105E1
:100810006C011068510113FD1CC006C080E290E01D
:10082000B3010E943705EA948E2D90E0C816D906D0
:10083000A8F30FC0F40117FD859117FF81914F01B7
:1008400090E0B3010E943705E110EA940894C108D2
:10085000D108C114D10471F7E7C0843611F089368C
:1008600051F5F50117FF07C080819181A281B38105
:1008700024E030E008C080819181AA2797FDA095EF
:10088000BA2F22E030E0A20EB31E012F0F76B7FF81
:1008900008C0B095A095909581959F4FAF4FBF4FE1
:1008A0000068BC01CD01A2012AE030E00E9463058E
:1008B000D82ED4183FC0853721F41F7E2AE030E0BF
:1008C00020C0197F8F36A9F0803720F4883509F0D1
:1008D000AEC00BC0803721F0883709F0A8C001C036
:1008E000106114FF09C0146007C014FF08C016602F
:1008F00006C028E030E005C020E130E002C020E181
:1009000032E0F50117FF07C0608171818281938118
:1009100044E050E006C06081718180E090E042E0F8
:1009200050E0A40EB51EA2010E946305D82ED41873
:10093000012F0F7706FF09C00E7FDF1430F404FF8C
:1009400006C002FD04C00F7E02C01D2D01C01F2D78
:10095000802F90E004FF0CC0FE01ED0DF11D208101
:10096000203311F4097E09C002FF06C01E5F05C0D6
:1009700086789070009709F01F5F802E992403FD00
:1009800012C000FF0DC0FD2C1E1550F4FE0CF11A14
:100990001E2D06C080E290E0B3010E9437051F5F64
:1009A0001E15C0F304C01E1510F4E11A01C0EE2498
:1009B00084FE0FC080E390E0B3010E94370582FE01
:1009C0001FC081FE03C088E590E010C088E790E07A
:1009D0000DC0C40186789070009791F081FC02C030
:1009E00080E201C08BE207FD8DE290E0B3010E943E
:1009F000370506C080E390E0B3010E943705FA9402
:100A0000DF14C0F3DA94F201ED0DF11D808190E066
:100A1000B3010E943705DD20A9F706C080E290E00F
:100A2000B3010E943705EA94EE20C1F740CEF301EE
:100A30008681978102C08FEF9FEF2D96E2E10C94A3
:100A4000DD05FC010590615070400110D8F78095DC
:100A500090958E0F9F1F0895FC016150704001908A
:100A60000110D8F7809590958E0F9F1F08950F93D2
:100A70001F93CF93DF938C01EB018B8181FF1BC010
:100A800082FF0DC02E813F818C819D8128173907FF
:100A900064F4E881F9810193F983E88306C0E8856D
:100AA000F985802F0995009731F48E819F810196F9
:100AB0009F838E8302C00FEF1FEFC801DF91CF919C
:100AC0001F910F910895FA01AA27283051F1203182
:100AD00081F1E8946F936E7F6E5F7F4F8F4F9F4FD2
:100AE000AF4FB1E03ED0B4E03CD0670F781F891F14
:100AF0009A1FA11D680F791F8A1F911DA11D6A0FE2
:100B0000711D811D911DA11D20D009F468943F9194
:100B10002AE0269F11243019305D3193DEF6CF0193
:100B20000895462F4770405D4193B3E00FD0C9F759
:100B3000F6CF462F4F70405D4A3318F0495D31FDC6
:100B40004052419302D0A9F7EACFB4E0A695979519
:100B5000879577956795BA95C9F7009761057105EF
:100B600008959B01AC010A2E069457954795379539
:100B70002795BA95C9F7620F731F841F951FA01D93
:100B800008952F923F924F925F926F927F928F9231
:100B90009F92AF92BF92CF92DF92EF92FF920F930C
:100BA0001F93CF93DF93CDB7DEB7CA1BDB0B0FB616
:100BB000F894DEBF0FBECDBF09942A8839884888D3
:100BC0005F846E847D848C849B84AA84B984C88469
:100BD000DF80EE80FD800C811B81AA81B981CE0F60
:100BE000D11D0FB6F894DEBF0FBECDBFED01089545
:040BF000F894FFCFA7
:100BF40043616C63756C6174696E672048522E2E74
:100C04002E005B50756C736520546573745D2050C1
:100C1400756C73652076616C75652069733A20255F
:100C2400690D0A0043616C63756C6174696E6720B9
:100C3400566F6C2E2E2E005B507265737375726541
:100C440020546573745D20507265737375726520EA
:100C540076616C75652069733A2025690D0A004830
:100C6400523A202564202F206D696E00566F6C3A2D
:080C7400202564206D6C0000D6
:00000001FF
