:100000000C9449000C9466000C9466000C946600F5
:100010000C9466000C9466000C9466000C946600C8
:100020000C9466000C9466000C9466000C946600B8
:100030000C9466000C9466000C9466000C946600A8
:100040000C9466000C9466000C9466000C94660098
:100050000C9466000C9466000C9466000C94660088
:100060000C9466000C946600202020202020202084
:100070002020202020202020202020202020202080
:100080002020202020202020202020202020202070
:10009000000011241FBECFEFD8E0DEBFCDBF11E0BE
:1000A000A0E0B1E0E0E7FBE002C005900D92A036D1
:1000B000B107D9F711E0A0E6B1E001C01D92A03B65
:1000C000B107E1F70E9464020C94B6050C9400009D
:1000D0008BB18F708BB98AB18F708AB985B18B77EC
:1000E00085B9299A2A9A85E08A95F1F789B12A98E3
:1000F0002A9A2A9887FDF6CF8AB1806F8AB9089527
:100100002BB1982F907F922B9BB99BB18F60892345
:100110008BB92A9A2A98662311F00E9468000895E4
:10012000CF93C82F85B1897F85B92F9A8C2F60E036
:100130000E9480008C2F8295807F61E00E94800069
:10014000CF910895CF93DF93C82FD62F85B18977AC
:1001500085B98C2F60E00E9480008C2F8295807F73
:100160006D2F0E948000DF91CF910895EF92FF9252
:100170001F93CF93DF930F92CDB7DEB7162F806812
:1001800061E079830E94A200E12E7981F72E02C0FE
:100190000E949000F70181917F018823C9F70F9099
:1001A000DF91CF911F91FF90EF900895CF93DF9350
:1001B000EB01806861E00E94A20002C00E949000F2
:1001C000FE01219684918823C9F7DF91CF9108958C
:1001D0008AB1806F8AB984B1866884B981E060E0B1
:1001E0000E94A20008958FEF97ED0197F1F700C0EC
:1001F000000080E360E00E94800089E999E30197B4
:10020000F1F700C080E360E00E9480008AEB91E09B
:100210000197F1F7000080E360E00E94800080E237
:1002200061E00E94800088E261E00E94A2008FE00D
:1002300061E00E94A200089568E670E00E94D60086
:10024000089581E060E00E94A2000895539AE1ECD5
:10025000F0E0808188608083808180618083E2EC2F
:10026000F0E08081877F808380818660808308952D
:10027000009741F48FE590E09093C5008093C4000F
:100280005B98089587E090E09093C5008093C40048
:100290005B9A08959091C00095FFFCCF8093C600B3
:1002A0000895CF93DF93EC0102C00E944A01899127
:1002B0008823D9F7DF91CF9108958091C00087FFFF
:1002C000FCCF8091C6000895EF92FF920F931F9389
:1002D000CF93DF937C010E945D018701C0E0D0E0F5
:1002E00009C0F80181938F0121960E945D01C832F7
:1002F000D10511F08E33A9F7CE0DDF1D1882DF91E5
:10030000CF911F910F91FF90EF9008950F931F933E
:10031000CF93DF930E9421018FEF9FE7A6E18150E9
:100320009040A040E1F700C0000000D000D000D015
:10033000EDB7FEB73196C8E8D1E0ADB7BEB71296BB
:10034000DC93CE93119700E011E01383028381E0E8
:1003500090E0958384830E94DF028DB79EB7069656
:100360000FB6F8949EBF0FBE8DBF80E090E00E9454
:100370001C0180E090E0BE010E94B60000D000D0D9
:1003800000D0EDB7FEB73196ADB7BEB71296DC938D
:10039000CE9311971383028382E090E09583848348
:1003A0000E94DF028DB79EB706960FB6F8949EBFE7
:1003B0000FBE8DBF80E490E00E941C0180E490E0BD
:1003C000BE010E94B600DF91CF911F910F91089559
:1003D000CF93DF93C8E8D1E0CE0161E171E00E94E4
:1003E000D002CE010E9451018FEF9FE7A4E081501F
:1003F0009040A040E1F700C00000CE0162E271E051
:100400000E94D002CE010E945101DF91CF91089548
:100410000F931F93CF93DF930E945D0100D000D014
:1004200000D0EDB7FEB73196C8E8D1E0ADB7BEB7A2
:100430001296DC93CE93119723E431E03383228329
:10044000848315820E94DF028DB79EB706960FB691
:10045000F8949EBF0FBE8DBF80E090E00E941C010B
:1004600080E090E0BE010E94B60000E611E0C80105
:100470000E94640100D000D000D0EDB7FEB73196E5
:10048000ADB7BEB71296DC93CE93119782E591E09B
:1004900093838283158304830E94DF028DB79EB706
:1004A00006960FB6F8949EBF0FBE8DBF80E490E015
:1004B0000E941C0180E490E0BE010E94B600DF9122
:1004C000CF911F910F91089514B817B81AB815B8A5
:1004D00018B81BB80E94260181E090E00E94380104
:1004E0000E94E8000E94F300C8E8D1E005E311E0B3
:1004F0000E94E80180E691E00E94640180E691E0BC
:100500000E94B2029C01880F991F53E0220F331FF3
:100510005A95E1F7820F931F00D000D000D0EDB7BD
:10052000FEB73196ADB7BEB71296DC93CE93119756
:10053000138302830596958384830E94DF028DB71F
:100540009EB706960FB6F8949EBF0FBE8DBF80E093
:1005500090E00E941C0180E090E068E871E00E9459
:10056000B600C6CFFC0188279927E8942191203254
:10057000E9F3293010F02E30C8F32B3241F02D3240
:1005800039F4689404C00E94D702820F911D219112
:1005900020532A30C0F31EF4909581959F4F089503
:1005A000FB01DC0101900D920020E1F708957AE053
:1005B000979F902D879F802D910D11240895AEE077
:1005C000B0E0E5EEF2E00C948D050D891E8986E021
:1005D0008C831A8309838FEF9FE79E838D83AE01FF
:1005E000475E5F4FCE0101966F89788D0E940103AF
:1005F000EF81F885E00FF11F10822E96E4E00C9455
:10060000A905ADE0B0E0E7E0F3E00C947F053C0124
:100610007D876C875A01FC0117821682838181FFD6
:10062000C8C12E010894411C511CF3019381EC8533
:10063000FD8593FD859193FF8191FD87EC8788234C
:1006400009F4B3C1853241F493FD859193FF819103
:10065000FD87EC87853229F490E0B3010E94F50410
:10066000E4CFFF24EE2410E01032B0F48B3269F0B6
:100670008C3228F4803251F0833271F40BC08D3209
:1006800039F0803349F411602CC01260146029C025
:10069000186027C0106125C017FD2EC0282F2053D9
:1006A0002A3098F416FF08C08F2D880FF82EFF0C03
:1006B000FF0CF80EF20E15C08E2D880FE82EEE0CF2
:1006C000EE0CE80EE20E10620CC08E3221F416FD24
:1006D0006CC1106406C08C3611F4106802C08836F4
:1006E00059F4EC85FD8593FD859193FF8191FD87FC
:1006F000EC87882309F0B8CF982F9554933018F0E1
:100700009052933038F424E030E0A20EB31E3FE361
:1007100039830FC0833631F0833781F0833509F098
:100720005AC022C0F5018081898322E030E0A20E08
:10073000B31E21E0C22ED12C420114C092E0292E1A
:10074000312C2A0C3B1CF5018080918016FF03C0E0
:100750006F2D70E002C06FEF7FEFC4010E94EA04CA
:100760006C0151011F7715C082E0282E312C2A0C14
:100770003B1CF5018080918016FF03C06F2D70E057
:1007800002C06FEF7FEFC4010E94DF046C011068AC
:10079000510113FD1CC006C080E290E0B3010E942D
:1007A000F504EA948E2D90E0C816D906A8F30FC080
:1007B000F40117FD859117FF81914F0190E0B3017E
:1007C0000E94F504E110EA940894C108D108C1140C
:1007D000D10471F7E7C0843611F0893651F5F5017F
:1007E00017FF07C080819181A281B38124E030E0AE
:1007F00008C080819181AA2797FDA095BA2F22E099
:1008000030E0A20EB31E012F0F76B7FF08C0B095DF
:10081000A095909581959F4FAF4FBF4F0068BC0149
:10082000CD01A2012AE030E00E942105D82ED41883
:100830003FC0853721F41F7E2AE030E020C0197FB9
:100840008F36A9F0803720F4883509F0AEC00BC090
:10085000803721F0883709F0A8C001C0106114FF6B
:1008600009C0146007C014FF08C0166006C028E065
:1008700030E005C020E130E002C020E132E0F501C7
:1008800017FF07C0608171818281938144E050E04D
:1008900006C06081718180E090E042E050E0A40EEB
:1008A000B51EA2010E942105D82ED418012F0F7762
:1008B00006FF09C00E7FDF1430F404FF06C002FDFE
:1008C00004C00F7E02C01D2D01C01F2D802F90E09F
:1008D00004FF0CC0FE01ED0DF11D2081203311F449
:1008E000097E09C002FF06C01E5F05C086789070B1
:1008F000009709F01F5F802E992403FD12C000FFAE
:100900000DC0FD2C1E1550F4FE0CF11A1E2D06C054
:1009100080E290E0B3010E94F5041F5F1E15C0F352
:1009200004C01E1510F4E11A01C0EE2484FE0FC0AD
:1009300080E390E0B3010E94F50482FE1FC081FEB7
:1009400003C088E590E010C088E790E00DC0C401C6
:1009500086789070009791F081FC02C080E201C01F
:100960008BE207FD8DE290E0B3010E94F50406C022
:1009700080E390E0B3010E94F504FA94DF14C0F321
:10098000DA94F201ED0DF11D808190E0B3010E9437
:10099000F504DD20A9F706C080E290E0B3010E94D3
:1009A000F504EA94EE20C1F740CEF30186819781E9
:1009B00002C08FEF9FEF2D96E2E10C949B05FC01A6
:1009C0000590615070400110D8F7809590958E0F7A
:1009D0009F1F0895FC016150704001900110D8F7ED
:1009E000809590958E0F9F1F08950F931F93CF931F
:1009F000DF938C01EB018B8181FF1BC082FF0DC057
:100A00002E813F818C819D812817390764F4E8810C
:100A1000F9810193F983E88306C0E885F985802F81
:100A20000995009731F48E819F8101969F838E8373
:100A300002C00FEF1FEFC801DF91CF911F910F91FF
:100A40000895FA01AA27283051F1203181F1E89464
:100A50006F936E7F6E5F7F4F8F4F9F4FAF4FB1E0B1
:100A60003ED0B4E03CD0670F781F891F9A1FA11DAC
:100A7000680F791F8A1F911DA11D6A0F711D811DAD
:100A8000911DA11D20D009F468943F912AE0269F72
:100A900011243019305D3193DEF6CF010895462FD1
:100AA0004770405D4193B3E00FD0C9F7F6CF462FB2
:100AB0004F70405D4A3318F0495D31FD405241931B
:100AC00002D0A9F7EACFB4E0A695979587957795D8
:100AD0006795BA95C9F700976105710508959B015F
:100AE000AC010A2E06945795479537952795BA95E8
:100AF000C9F7620F731F841F951FA01D08952F92C1
:100B00003F924F925F926F927F928F929F92AF929D
:100B1000BF92CF92DF92EF92FF920F931F93CF93EA
:100B2000DF93CDB7DEB7CA1BDB0B0FB6F894DEBF81
:100B30000FBECDBF09942A88398848885F846E84A7
:100B40007D848C849B84AA84B984C884DF80EE80F1
:100B5000FD800C811B81AA81B981CE0FD11D0FB6FA
:100B6000F894DEBF0FBECDBFED010895F894FFCF1E
:100B70004C43442054657374204C696E6520256491
:100B80000048656C6C6F20426C7565746F6F74689B
:100B90000A0053796D626F6C733A202B202D202A46
:100BA000202F200A006E756D6265722069733A20ED
:100BB0002564006368617220726563762E3A202591
:100BC00063006C696E6520726563763A2025730058
:00000001FF
