:100000000C9436000C9453000C9453000C94530041
:100010000C9453000C9453000C9453000C94530014
:100020000C9453000C9453000C9453000C94530004
:100030000C9453000C9453000C9453000C945300F4
:100040000C9453000C9453000C9453000C945300E4
:100050000C9453000C9453000C9453000C945300D4
:100060000C9453000C9453006200610011241FBED5
:10007000CFEFD8E0DEBFCDBF11E0A0E0B1E0E6EF0A
:10008000F1E002C005900D92A030B107D9F711E060
:10009000A0E0B1E001C01D92A030B107E1F70E94DD
:1000A000E0000C94F9000C9400008BB18F708BB9B8
:1000B0008AB18F708AB985B18B7785B9299A2A9AC6
:1000C00083E08A95F1F7000089B12A982A9A2A9844
:1000D00087FDF5CF8AB1806F8AB908952BB1982F2B
:1000E000907F922B9BB99BB18F6089238BB92A9A01
:1000F0002A98662311F00E9455000895CF93DF934C
:10010000C82FD62F85B1897785B98C2F60E00E94E2
:100110006E008C2F8295807F6D2F0E946E00DF9184
:10012000CF9108958FEF9FE80197F1F700C000008D
:1001300080E360E00E946E0086E696E20197F1F7A8
:10014000000080E360E00E946E0086E291E001978B
:10015000F1F700C0000080E360E00E946E0080E2E2
:1001600061E00E946E0088E261E00E947E008FE004
:1001700061E00E947E000895CF93C82F85B1897FEA
:1001800085B92F9A8C2F60E00E946E008C2F82958B
:10019000807F61E00E946E00CF910895CF93DF933E
:1001A000EB01806861E00E947E0002C00E94BC00FA
:1001B000FE01219684918823C9F7DF91CF9108959C
:1001C0008AB1806F8AB984B1866884B981E060E0C1
:1001D0000E947E000E94920080E090E06AE670E05B
:1001E0000E94CE0080E490E068E670E00E94CE00BD
:0601F000FFCFF894FFCFE1
:00000001FF
